S01200004D6F746F7220546573742E7372656341
S11300000C942A000C9434000C9434000C943400A6
S11300100C9434000C9434000C9434000C9434008C
S11300200C9434000C9434000C9434000C9434007C
S11300300C9434000C9434000C9434000C9434006C
S11300400C9434000C9434000C9434000C9434005C
S11300500C94340011241FBECFE5D8E0DEBFCDBF21
S11300600E9436000C9455000C94000084B78068FC
S113007084BF84B7806884BF8FEF84BB92E084E838
S113008095BB2FEB37E249E0215030404040E1F787
S113009000C0000085BB2FEB37E249E0215030401F
S11100A04040E1F700C00000EBCFF894FFCF22
S9030000FC
