S01000004C445220546573742E7372656372
S11300000C942A000C9434000C9434000C943400A6
S11300100C9434000C9434000C9434000C9434008C
S11300200C9434000C9434000C9434000C9434007C
S11300300C9434000C9434000C9434000C9434006C
S11300400C9434000C9434000C9434000C9434005C
S11300500C94340011241FBECFE5D8E0DEBFCDBF21
S11300600E9414010C9470010C940000939A00C037
S113007093980895CF93C82F662311F0A89A01C0CE
S1130080A89892988C9A8D9A8E9A8F9A9798969807
S113009095989498CC230CF4979AC6FD969AC5FD2E
S11300A0959AC4FD949A0E943600979896989598CC
S11300B09498C3FD979AC2FD969AC1FD959AC0FD86
S11300C0949A0E943600949A959A969A979ACF9108
S11300D00895882311F0A89A01C0A898929A8C9840
S11300E08D988E988F98939A00C0849B02C080E16B
S11300F001C080E0859980628699806487998068D0
S1130100939800C0939A00C0849981608599826015
S113011086998460879988609398089580E00E9406
S113012069008823DCF300C080E00E946900089520
S1130130CF93C82F0E948E0060E08C2F0E943A005B
S1130140CF91089581E00E9498000895CF93C82F1D
S11301500E948E00CA3049F4803410F080E001C05F
S113016080E480580E94980013C0803129F460E034
S113017080EC0E943A0006C0803521F460E080E8FB
S11301800E943A000E948E0061E08C2F0E943A0087
S1130190CF910895CF93DF93EC012196FC018081E8
S11301A0882329F00E94A60089918111FBCFDF9159
S11301B0CF9108951F93CF93DF93182FA09A8A9A13
S11301C08B9A8C9A8D9A8E9A8F9A80EA9FE00197E7
S11301D0F1F7959A949A0E94360080EE94E0019784
S11301E0F1F70E943600C0E1D0E0CE010197F1F7AB
S11301F00E943600CE010197F1F794980E943600D0
S11302002197F1F788E20E94980088E00E94980004
S11302100E94A20086E00E949800812F0E9498000C
S1130220DF91CF911F910895CF93DF9300D0CDB785
S1130230DEB78CE00E94DA001ABA8FEF84BB84E048
S113024085BB89B382704AE050E0BE016F5F7F4F87
S113025090E00E943001CE0101960E94CA00F1CFC5
S11302604532510520F4423010F00C943B01FB015F
S11302701082CB010895BB274A3031F4992322F42C
S1130280BDE2909581959F4F0C944701BB27FB01DC
S11302905527AA27880F991FAA1FA41710F0A41B7B
S11302A083955051B9F7A05DAA3308F0A95DA193D5
S11302B0009779F7B111B1931192CB010C946001BD
S11302C0DC01FC01672F71917723E1F7329704C0B9
S11302D07C916D9370836291AE17BF07C8F3089544
S10702E0F894FFCFBC
S9030000FC
