S0160000496E7465727275707420546573742E7372656381
S11300000C942A000C943F000C943F000C943F0085
S11300100C943F000C943F000C943F000C943F0060
S11300200C943F000C943F000C943F000C943F0050
S11300300C943F000C9440010C943F000C943F003E
S11300400C943F000C943F000C943F000C943F0030
S11300500C943F0011241FBECFE5D8E0DEBFCDBF16
S113006010E0A0E6B0E0E4E6F3E002C005900D92F3
S1130070A03BB107D9F70E9434010C94B0010C9451
S1130080000080B580BD89B18C6089B98AB188616E
S11300908AB980B58F7B80BD80B5866880BD82E0DB
S11300A08BB908955D9BFECF8CB90895CF93DF93F0
S11300B0EC018881882331F021960E9452008991B5
S11300C08111FBCFDF91CF910895939A00C093984B
S11300D00895CF93C82F662311F0A89A01C0A89859
S11300E092988C9A8D9A8E9A8F9A979896989598BA
S11300F09498CC230CF4979AC6FD969AC5FD959ACC
S1130100C4FD949A0E94650097989698959894983F
S1130110C3FD979AC2FD969AC1FD959AC0FD949A23
S11301200E946500949A959A969A979ACF91089509
S1130130882311F0A89A01C0A898929A8C988D9857
S11301408E988F98939A00C0849B02C080E101C06E
S113015080E0859980628699806487998068939805
S113016000C0939A00C084998160859982608699C1
S11301708460879988609398089580E00E9498002D
S11301808823DCF300C080E00E9498000895CF9398
S1130190C82F0E94BD0060E08C2F0E946900CF919F
S11301A0089581E00E94C7000895CF93C82F0E944C
S11301B0BD00CA3049F4803410F080E001C080E40E
S11301C080580E94C70004C061E08C2F0E9469001F
S11301D0CF910895CF93DF93EC012196FC018081A8
S11301E0882329F00E94D50089918111FBCFDF91EA
S11301F0CF9108951F93CF93DF93182FA09A8A9AD3
S11302008B9A8C9A8D9A8E9A8F9A80EA9FE00197A6
S1130210F1F7959A949A0E94650080EE94E0019714
S1130220F1F70E946500C0E1D0E0CE010197F1F73B
S11302300E946500CE010197F1F794980E94650031
S11302402197F1F788E20E94C70088E00E94C70066
S11302500E94D10086E00E94C700812F0E94C7003F
S1130260DF91CF911F9108958CE00E94FA000E94C3
S1130270410080E690E00E94EA007894579AFFCF0C
S11302801F920F920FB60F9211242F933F934F9307
S11302905F936F937F938F939F93AF93BF93EF93EA
S11302A0FF938CB1813459F40E94D50088E690E024
S11302B00E9456008DE690E00E94560040C08234B1
S11302C059F40E94D50084E790E00E94560089E723
S11302D090E00E94560033C0833459F40E94D50044
S11302E080E890E00E94560085E890E00E94560065
S11302F026C0843459F40E94D5008CE890E00E9412
S1130300560081E990E00E94560019C0853459F4E2
S11303100E94D50088E990E00E9456008DE990E0A3
S11303200E9456000CC0863451F40E94D50084EA21
S113033090E00E94560089EA90E00E945600FF91E6
S1130340EF91BF91AF919F918F917F916F915F9149
S11303504F913F912F910F900FBE0F901F901895C2
S1070360F894FFCF3B
S113036457656C636F6D650052523A41004C4C3AC8
S11303743130300052523A42004C4C3A3230300060
S113038452523A43004C4C3A3330300052523A44BD
S1130394004C4C3A3430300052523A45004C4C3AFA
S11303A43530300052523A46004C4C3A3630300024
S9030000FC
