:100000000C942A000C943F000C943F000C943F0089
:100010000C943F000C943F000C943F000C943F0064
:100020000C943F000C943F000C943F000C943F0054
:100030000C943F000C943F000C943F000C943F0044
:100040000C943F000C943F000C943F000C943F0034
:100050000C943F0011241FBECFE5D8E0DEBFCDBF1A
:1000600010E0A0E6B0E0E2E2F3E002C005900D92FD
:10007000A836B107D9F70E9420010C948F010C9487
:100080000000939A00C093980895CF93C82F6623D9
:1000900011F0A89A01C0A89892988C9A8D9A8E9A7D
:1000A0008F9A9798969895989498CC230CF4979A51
:1000B000C6FD969AC5FD959AC4FD949A0E9441008A
:1000C0009798969895989498C3FD979AC2FD969A9A
:1000D000C1FD959AC0FD949A0E944100949A959A08
:1000E000969A979ACF910895882311F0A89A01C003
:1000F000A898929A8C988D988E988F98939A00C011
:10010000849B02C080E101C080E08599806286996D
:10011000806487998068939800C0939A00C08499FE
:1001200081608599826086998460879988609398B8
:10013000089580E00E9474008823DCF300C080E012
:100140000E9474000895CF93C82F0E94990060E028
:100150008C2F0E944500CF91089581E00E94A3005A
:100160000895CF93C82F0E949900CA3049F4803473
:1001700010F080E001C080E480580E94A30004C019
:1001800061E08C2F0E944500CF910895CF93DF93BB
:10019000EC012196FC018081882329F00E94B100A6
:1001A00089918111FBCFDF91CF9108951F93CF9358
:1001B000DF93182FA09A8A9A8B9A8C9A8D9A8E9A8E
:1001C0008F9A80EA9FE00197F1F7959A949A0E949E
:1001D000410080EE94E00197F1F70E944100C0E1F8
:1001E000D0E0CE010197F1F70E944100CE010197C6
:1001F000F1F794980E9441002197F1F788E20E945C
:10020000A30088E00E94A3000E94AD0086E00E9447
:10021000A300812F0E94A300DF91CF911F91089529
:1002200080E487B987E886B9089597B1987F877089
:10023000892B87B9369A3699FECF84B195B1089546
:10024000CF93DF9300D000D0CDB7DEB78CE00E9413
:10025000D60080E690E00E94C6000E94100100EAED
:1002600010E080E00E9415014AE050E0BE016F5F9F
:100270007F4F9801281B390BC9010E944F010E9432
:10028000AD00CE0101960E94C6003FE986E891E0EC
:10029000315080409040E1F700C00000E2CF45328D
:1002A000510520F4423010F00C945A01FB011082E9
:1002B000CB010895BB274A3031F4992322F4BDE2E3
:1002C000909581959F4F0C946601BB27FB015527A4
:1002D000AA27880F991FAA1FA41710F0A41B8395A3
:1002E0005051B9F7A05DAA3308F0A95DA19300971A
:1002F00079F7B111B1931192CB010C947F01DC011C
:10030000FC01672F71917723E1F7329704C07C914C
:100310006D9370836291AE17BF07C8F30895F89488
:02032000FFCF0D
:0803220057656C636F6D650007
:00000001FF
