S01300004B657970616420546573742E73726563F3
S11300000C942A000C943F000C943F000C943F0085
S11300100C943F000C943F000C943F000C943F0060
S11300200C943F000C943F000C943F000C943F0050
S11300300C943F000C943F000C943F000C943F0040
S11300400C943F000C943F000C943F000C943F0030
S11300500C943F0011241FBECFE5D8E0DEBFCDBF16
S113006010E0A0E6B0E0E6E9F2E002C005900D92EF
S1130070A037B107D9F70E9441010C9449010C94AF
S113008000008FE082BB40E050E060E170E0CB0113
S1130090042E02C0880F991F0A94E2F781BB20E066
S11300A030E0000080B390E0022E02C09595879561
S11300B00A94E2F780FD0BC0220F331F220F331F77
S11300C0205A3F4FF901E40FF51F808108952F5FF7
S11300D03F4F2430310529F74F5F5F4F44305105BE
S11300E0B1F68FEF0895C29A00C0C2980895CF93D5
S11300F0C82F662311F0C09A01C0C098C198BB9A5A
S1130100BC9ABD9ABE9AC698C598C498C398CC2385
S11301100CF4C69AC6FDC59AC5FDC49AC4FDC39A1B
S11301200E947300C698C598C498C398C3FDC69A24
S1130130C2FDC59AC1FDC49AC0FDC39A0E94730052
S1130140C39AC49AC59AC69ACF910895882311F088
S1130150C09A01C0C098C19ABB98BC98BD98BE987B
S1130160C29A00C0B39B02C080E101C080E0B49990
S11301708062B5998064B6998068C29800C0C29ABA
S113018000C0B3998160B4998260B5998460B699CE
S11301908860C298089580E00E94A6008823DCF35A
S11301A000C080E00E94A6000895CF93C82F0E944B
S11301B0CB0060E08C2F0E947700CF91089581E0FE
S11301C00E94D5000895CF93C82F0E94CB00CA3057
S11301D049F4803410F080E001C080E480580E942B
S11301E0D50013C0803129F460E080EC0E947700D0
S11301F006C0803521F460E080E80E9477000E9408
S1130200CB0061E08C2F0E947700CF9108951F935B
S1130210CF93DF93182FB89AB99ABA9ABB9ABC9A1B
S1130220BD9ABE9A80EA9FE00197F1F7C49AC39AF7
S11302300E94730080EE94E00197F1F70E9473002E
S1130240C0E1D0E0CE010197F1F70E947300CE0126
S11302500197F1F7C3980E9473002197F1F788E2A0
S11302600E94D50088E00E94D5000E94DF0086E04D
S11302700E94D500812F0E94D500DF91CF911F915C
S113028008958CE00E9407010E9441000E94E3004F
S1090290FBCFF894FFCF40
S11302963132334134353642373839432A302344F0
S9030000FC
