S01000004C434420546573742E7372656381
S11300000C942A000C943F000C943F000C943F0085
S11300100C943F000C943F000C943F000C943F0060
S11300200C943F000C943F000C943F000C943F0050
S11300300C943F000C943F000C943F000C943F0040
S11300400C943F000C943F000C943F000C943F0030
S11300500C943F0011241FBECFE5D8E0DEBFCDBF16
S113006010E0A0E6B0E0E0E6F2E002C005900D92F8
S1130070A039B107D9F70E9417010C942E010C94F2
S11300800000939A00C093980895CF93C82F6623D5
S113009011F0A89A01C0A89892988C9A8D9A8E9A79
S11300A08F9A9798969895989498CC230CF4979A4D
S11300B0C6FD969AC5FD959AC4FD949A0E94410086
S11300C09798969895989498C3FD979AC2FD969A96
S11300D0C1FD959AC0FD949A0E944100949A959A04
S11300E0969A979ACF910895882311F0A89A01C0FF
S11300F0A898929A8C988D988E988F98939A00C00D
S1130100849B02C080E101C080E085998062869969
S1130110806487998068939800C0939A00C08499FA
S113012081608599826086998460879988609398B4
S1130130089580E00E9474008823DCF300C080E00E
S11301400E9474000895CF93C82F0E94990060E024
S11301508C2F0E944500CF91089581E00E94A30056
S11301600895CF93C82F0E949900CA3049F480346F
S113017010F080E001C080E480580E94A30004C015
S113018061E08C2F0E944500CF9108951F93CF9377
S1130190DF93182FA09A8A9A8B9A8C9A8D9A8E9AAA
S11301A08F9A80EA9FE00197F1F7959A949A0E94BA
S11301B0410080EE94E00197F1F70E944100C0E114
S11301C0D0E0CE010197F1F70E944100CE010197E2
S11301D0F1F794980E9441002197F1F788E20E9478
S11301E0A30088E00E94A3000E94AD0086E00E9464
S11301F0A300812F0E94A300DF91CF911F91089546
S1130200CF93DF93EC010E94AD008881882361F0D5
S113021021960E94B1008FE097E20197F1F700C0A8
S1130220000089918111F5CFDF91CF9108958CE081
S11302300E94C60080E690E00E9400012FE78AE158
S113024096E0215080409040E1F700C000008FE626
S113025090E00E94000180E090E00895F894FFCFC0
S1130260202A2A2057656C636F6D65202A2A002A8C
S11302702A204175746F6D61746564202A2A0A2AE4
S11302802A2043757020576173686572202A2A00FA
S9030000FC
