:100000000C942A000C9434000C9434000C943400AA
:100010000C9434000C9434000C9434000C94340090
:100020000C9434000C9434000C9434000C94340080
:100030000C9434000C9434000C9434000C94340070
:100040000C9434000C9434000C9434000C94340060
:100050000C94340011241FBECFE5D8E0DEBFCDBF25
:100060000E9436000C949D000C9400000E949700A2
:1000700061E070E08AE590E00E9443000E949300F6
:1000800080E090E00895CF93DF93181619060CF0E6
:1000900047C020E030E0B0E3A0E2F0E6E0E470EC3E
:1000A00060E850E940E1BBBBC7E8D3E12197F1F735
:1000B00000C00000ABBBC7E8D3E12197F1F700C057
:1000C0000000FBBBC7E8D3E12197F1F700C00000B7
:1000D000EBBBC7E8D3E12197F1F700C000007BBB81
:1000E000C7E8D3E12197F1F700C000006BBBC7E878
:1000F000D3E12197F1F700C000005BBBC7E8D3E173
:100100002197F1F700C000004BBBC7E8D3E121976E
:10011000F1F700C000002F5F3F4F8217930719F6D9
:10012000DF91CF9108958BB38F708BBB08958AB305
:0E013000806F8ABB0E9493000895F894FFCF61
:00000001FF
