S01D0000426C7565746F6F7468204D6F64756C6520546573742E737265630B
S11300000C942A000C943F000C943F000C943F0085
S11300100C943F000C943F000C943F000C943F0060
S11300200C943F000C943F000C943F000C943F0050
S11300300C943F000C943F000C943F000C943F0040
S11300400C943F000C943F000C943F000C943F0030
S11300500C943F0011241FBECFE5D8E0DEBFCDBF16
S113006010E0A0E6B0E0E4E4F3E002C005900D92F5
S1130070A03BB107D9F70E9446010C94A0010C944F
S1130080000080B580BD89B18C6089B98AB188616E
S11300908AB980B58F7B80BD80B5866880BD82E0DB
S11300A08BB908955D9BFECF8CB90895CF93DF93F0
S11300B0EC018881882331F021960E9452008991B5
S11300C08111FBCFDF91CF9108958BB18CB108954D
S11300D0939A00C093980895CF93C82F662311F084
S11300E0A89A01C0A89892988C9A8D9A8E9A8F9A01
S11300F09798969895989498CC230CF4979AC6FD63
S1130100969AC5FD959AC4FD949A0E9468009798A2
S1130110969895989498C3FD979AC2FD969AC1FDB6
S1130120959AC0FD949A0E946800949A959A969A1A
S1130130979ACF910895882311F0A89A01C0A8989E
S1130140929A8C988D988E988F98939A00C0849BDD
S113015002C080E101C080E0859980628699806454
S113016087998068939800C0939A00C084998160AD
S113017085998260869984608799886093980895A8
S113018080E00E949B008823DCF300C080E00E9492
S11301909B000895CF93C82F0E94C00060E08C2F6D
S11301A00E946C00CF91089581E00E94CA000895D6
S11301B0CF93C82F0E94C000CA3049F4803410F095
S11301C080E001C080E480580E94CA0013C08031DE
S11301D029F460E080EC0E946C0006C0803521F4B4
S11301E060E080E80E946C000E94C00061E08C2FF7
S11301F00E946C00CF910895CF93DF93EC01219678
S1130200FC018081882329F00E94D8008991811102
S1130210FBCFDF91CF9108951F93CF93DF93182FD6
S1130220A09A8A9A8B9A8C9A8D9A8E9A8F9A80EA3F
S11302309FE00197F1F7959A949A0E94680080EEE6
S113024094E00197F1F70E946800C0E1D0E0CE018C
S11302500197F1F70E946800CE010197F1F7949895
S11302600E9468002197F1F788E20E94CA0088E0A2
S11302700E94CA000E94D40086E00E94CA00812F16
S11302800E94CA00DF91CF911F9108958CE00E94D3
S11302900C0180E690E00E94FC000E9441000E9454
S11302A06500813459F40E94D80088E690E00E94E9
S11302B056008DE690E00E945600F1CF823459F446
S11302C00E94D80084E790E00E94560089E790E0FD
S11302D00E945600E4CF833459F40E94D80080E889
S11302E090E00E94560085E890E00E945600D7CF27
S11302F0843459F40E94D8008CE890E00E9456009F
S113030081E990E00E945600CACF853459F40E94D6
S1130310D80088E990E00E9456008DE990E00E94A0
S11303205600BDCF863409F0BACF0E94D80084EAC3
S113033090E00E94560089EA90E00E945600AFCFF8
S1070340F894FFCF5B
S113034457656C636F6D650052523A41004C4C3AE8
S11303543130300052523A42004C4C3A3230300080
S113036452523A43004C4C3A3330300052523A44DD
S1130374004C4C3A3430300052523A45004C4C3A1A
S11303843530300052523A46004C4C3A3630300044
S9030000FC
